:020000040800F2
:100000008009002021020008351800082D1800087A
:10001000311800085D0400084D1A000800000000B7
:100020000000000000000000000000003D18000873
:100030006104000800000000391800084118000899
:100040003B0200083B0200083B0200083B0200089C
:100050003B0200083B0200083B0200083B0200088C
:100060003B0200083B0200083B0200083B0200087C
:100070003B0200083B0200083B0200083B0200086C
:100080003B0200083B0200083B0200083B0200085C
:100090003B0200083B0200083B0200083B0200084C
:1000A0003B0200083B0200083B0200083B0200083C
:1000B0003B0200083B0200083B0200083B0200082C
:1000C0003B0200083B0200083B0200083B0200081C
:1000D0003B0200083B020008411A00083B020008EE
:1000E0003B0200083B0200083B0200083B020008FC
:1000F0003B0200083B0200083B0200083B020008EC
:100100003B0200083B0200083B0200083B020008DB
:100110003B0200083B0200083B0200083B020008CB
:100120003B0200083B0200083B0200083B020008BB
:100130003B02000800000000000000003B02000835
:100140003B0200083B0200083B0200083B0200089B
:100150003B0200083B0200083B0200083B0200088B
:100160003B0200083B0200083B0200083B0200087B
:100170003B0200083B0200080000000000000000F5
:100180003B02000800F002F800F03AF80AA090E8FC
:10019000000C82448344AAF10107DA4501D100F042
:1001A0002FF8AFF2090EBAE80F0013F0010F18BFD5
:1001B000FB1A43F00103184744270000642700009E
:1001C000103A24BF78C878C1FAD8520724BF30C883
:1001D00030C144BF04680C60704700000023002455
:1001E00000250026103A28BF78C1FBD8520728BF47
:1001F00030C148BF0B6070471FB51FBD10B510BDA3
:1002000000F0F2F81146FFF7F7FF01F08BFC00F069
:1002100010F903B4FFF7F2FF03BC00F017F9000078
:100220000948804709480047FEE7FEE7FEE7FEE78A
:10023000FEE7FEE7FEE7FEE7FEE7FEE704480549C6
:10024000054A064B70470000451800088501000864
:100250008003002080090020800500208005002008
:1002600053EA020C00F069802DE9F04B4FF00006D4
:10027000002B1FBFB3FA83F503FA05F424FA05F641
:100280005E4012BF1643B2FA82F502FA05F4C5F1D8
:1002900020051EBF22FA05FC44EA0C04203556EA6C
:1002A000044C4FEA144418BF641C4FF000084FF090
:1002B0000009904271EB030C39D3002919BFB1FA40
:1002C00081F701FA07F6B0FA80F700FA07F6C7F1EE
:1002D00020071EBF20FA07FC46EA0C062037B6FBB3
:1002E000F4FCA7EB0507103F07F01F0BCBF120062E
:1002F0002CFA06F60CFA0BFB44BFB3460026202F5F
:10030000A4BF5E464FF0000B5BEA060C08BF4FF03F
:10031000010B19EB0B0948EB0608ABFB027C06FB53
:1003200002CC0BFB03CCC01B71EB0C01C1E70B46ED
:10033000024641464846BDE8F08B13B5084318BF56
:100340004FF0FF300146AFF30080BDE81C4070471E
:100350004FF000020429C0F0128010F0030C00F0EE
:100360001B80CCF1040CBCF1020F18BF00F8012B6C
:10037000A8BF20F8022BA1EB0C0100F00DB85FEA3A
:10038000C17C24BF00F8012B00F8012B48BF00F806
:10039000012B70474FF0000200B513469446964675
:1003A000203922BFA0E80C50A0E80C50B1F1200188
:1003B000BFF4F7AF090728BFA0E80C5048BF0CC036
:1003C0005DF804EB890028BF40F8042B08BF704794
:1003D00048BF20F8022B11F0804F18BF00F8012B06
:1003E0007047704770477047754600F02BF8AE466F
:1003F00005006946534620F00700854618B020B531
:10040000FFF71CFFBDE820404FF000064FF000074B
:100410004FF000084FF0000BAC46ACE8C009ACE868
:10042000C009ACE8C009ACE8C00921F007018D465D
:10043000704710B50446AFF300802046BDE8104079
:10044000FFF7E7BE00487047700000200149182000
:10045000ABBEFEE72600020070470000FEE700008A
:100460007047000070B5866D044600F02FF994F8CF
:100470003510022928D105462068216C026822F037
:1004800016020260426922F08002426109B9A16C41
:1004900019B1016821F008010160016821F0010132
:1004A000016000BF20680068C00715D000F00EF999
:1004B000401B0628F6D320206065032084F8350011
:1004C000002184F8341070BD802060650120002177
:1004D00084F8341070BD00BFE06D3F2101FA00F0D8
:1004E000B060012084F835000020002184F8341029
:1004F00070BD000090F83510022909D1052180F85F
:1005000035100068016821F001010160002070478A
:1005100080214165012070472DE9F04F82B00C68C1
:10052000002C00F0C98000F13E4742F2000507F1BF
:10053000FF77C4F20205092243F6004E4FEAB726C0
:10054000A84208BF0822C4F2010E082E38BF4FEAA5
:10055000B722002600274FF0000800920BE000BFF2
:100560000C6808F1010834FA08F207F1040706F1F3
:10057000020600F0A180012202FA08FC14EA0C092C
:10058000EED0D1F804B003220BF00304651EB24094
:10059000012D6FEA020A11D88268CD6802EA0A02C8
:1005A000B5402A4382604268CBF3001522EA0C0270
:1005B00005FA08F52A43426004E000BF032C01D18C
:1005C00003241DE0C2688D6802EA0A02B5402A438E
:1005D000022CC26014D16FF0030202EA58020244F6
:1005E000D2F820C007F01C040F230D69A3402CEAA9
:1005F0000303A5402B431362D1F804B00BF00304AE
:10060000026804FA06F302EA0A021A431BF4403FA6
:100610000260A5D0002243F644030192C4F2020313
:100620001A684FF6084C42F480421A601A68CFF6F6
:10063000FF7C02F480420192019A28F00302724486
:1006400052F80C3007F00C050F24AC40A343009C7B
:1006500004FA05F52B4342F80C30DEF808204B680D
:1006600042EA090543F60C4CDC0258BF22EA0905B0
:10067000CEF80850C4F2010CDCF800209C0242EADB
:10068000090558BF22EA0905CCF80050DEF804201D
:100690009C0342EA090558BF22EA0905CEF8045036
:1006A000DEF80020DB0342EA090558BF22EA09050B
:1006B000CEF8005054E700BF02B0BDE8F08F000054
:1006C000002A08BF090481617047000040F27C30B5
:1006D000C2F200000068704740F2000040F27C3136
:1006E000C2F20000C2F2000100780A6810440860FB
:1006F0007047000080B543F60040C4F20200016874
:1007000041F400710160016841F480610160016899
:1007100041F480710160032000F088F80F2000F0A0
:1007200005F800F027F8002080BD000070B540F209
:100730000006C2F2000640F26C013278C2F20001FB
:100740004FF47A730968B3FBF2F20446B1FBF2F19D
:10075000084600F023FB0F2C4FF0010508D838B9EC
:100760004FF0FF3021460022002500F033F874607E
:10077000284670BD82B0002043F640010190C4F2CB
:1007800002014A6842F480424A604A6802F48042A8
:100790000192019A0090086840F080500860086853
:1007A00000F080500090009802B07047002848BFC9
:1007B0007047C1B200F01F00012202FA00F04EF2B1
:1007C0000012CEF2000242EAD10121F003010860DA
:1007D0007047000010B54EF60C5CCEF2000CDCF851
:1007E0000030C3F3022E8EF00704042C28BF04242B
:1007F000BEF103034FF0FF3E0EFA04F438BF0023AE
:10080000A14399400EFA03F39A43114300F00F02FB
:1008100000F160430901043A03F56443624400288F
:1008200048BF02F10C03197010BD00004EF60C51C8
:10083000CEF200010A684FF6FF031A4060F30A2265
:1008400042F0806040F0FD70086070472DE9F04193
:10085000002800F0C78043F60808C4F202080446E6
:10086000D8F8F8030D4600F00F00884208D288F847
:10087000F853D8F8F80300F00F00A84240F0B28017
:100880002068810717D5410705D5D8F8001041F435
:10089000E051C8F80010010705D5D8F8001041F460
:1008A0006041C8F80010D8F80010A26821F0F001EB
:1008B0001143C8F80010C00720D1D8F8F80300F0A1
:1008C0000F00A84208D988F8F853D8F8F80300F0C8
:1008D0000F00A84240F08680206841071CD4000722
:1008E00024D4D8F8000000F00C0008282DD00428EB
:1008F0004ED147F64000C0F27D104DE060680228FE
:1009000064D001286AD158F8081C89035CBF012013
:10091000BDE8F0816AE000BFD8F80010E26821F479
:10092000E0511143C8F800100007DAD5D8F80000EC
:10093000216920F4604040EAC100C8F80000D8F8FE
:10094000000000F00C000828D1D158F8040C58F829
:10095000041C58F8043C490247F64001C0F27D11DE
:1009600000F03F02C3F388105CBF42F20041C0F2C6
:10097000F401A1FB00010023FFF772FC58F8041CEE
:100980000222C1F3014102EB4101B0FBF1F003E0AF
:1009900042F20040C0F2F400D8F8001042F2666261
:1009A000C1F30311C0F60002515C40F26C0220FA60
:1009B00001F140F20400C2F200000068C2F200023D
:1009C0001160FFF7B3FE0020BDE8F08158F8081C65
:1009D00089015CBF0120BDE8F08107E058F8081CE0
:1009E000890703D40120BDE8F08100BFD8F80010CA
:1009F00021F003010843C8F80000FFF767FE064630
:100A000041F28837D8F80000616800F00C00B0EBC4
:100A1000810F3FF452AFFFF759FE801BB842F1D966
:100A20000320BDE8F081000040F26C0043F60801AD
:100A3000C2F20000C4F202010068096842F2766264
:100A4000C1F38221C0F60002515CC840704700002B
:100A500040F26C0043F60801C2F20000C4F2020149
:100A60000068096842F27662C1F34231C0F60002C2
:100A7000515CC840704700002DE9F04182B0002869
:100A800000F08E800446007843F60006C007C4F2EA
:100A900002062FD0B06800F00C00042806D13068A0
:100AA000800327D5606828BB7AE000BFB06800F0FB
:100AB0000C00082802D170684002F0D46068B07061
:100AC0006568FFF703FE002D054610D030688003EF
:100AD00010D4FFF7FBFD401B6428F7D9F7E000BFF7
:100AE000FFF7F4FD401B64284FF0030054D8306832
:100AF0008003F5D4207880071AD5B06810F00C0F69
:100B000009D0B06800F00C00082840F091807068AF
:100B1000400200F18D803068800702D5E06801282E
:100B20003ED13068216920F0F80040EAC100306011
:100B30002078000738D4207840074DD4A56955B3F4
:100B4000B06800F00C00082840F0C680012D27D0C6
:100B50007068E16900F480028A4221D1216A00F0C4
:100B60003F028A421CD147F6C071626A0140B1EB74
:100B7000821F15D1A16A4FF6FF73C903994300F490
:100B80004032A1F580318A420AD1E16A00F07060FA
:100B9000B0EB016F04D1002002B0BDE8F08100BFCE
:100BA000012002B0BDE8F0816069002840F2000039
:100BB000C4F247207CD00121C0F8801EFFF786FDDB
:100BC000054600BF706F8007B5D4FFF77FFD401B5F
:100BD0000228F7D97BE000BF306C10F080580AD1B2
:100BE00000200190306C40F080503064306C00F098
:100BF00080500190019847F20007C4F2000738685E
:100C000040F4807038603868C00527D4386840F4F4
:100C100080703860FFF75AFD054600BF3868C00590
:100C20001CD4FFF753FD401B0228F7D94FE000BF4B
:100C3000E068002872D00020C4F247200121016042
:100C4000FFF744FD054600BF306880073FF569AFF8
:100C5000FFF73CFD401B0228F6D938E0A06886F873
:100C60007000A568FFF732FD002D054641F2883778
:100C700012D000BF306F800711D4FFF727FD401B53
:100C8000B842F7D923E000BFFFF720FD401BB84270
:100C90004FF003003FF680AF306F8007F4D4B8F117
:100CA000000F7FF44BAF306C20F08050306445E78C
:100CB0000021C0F8801EFFF709FD0546706F800710
:100CC0007FF539AFFFF702FD401B0228F6D903205C
:100CD00002B0BDE8F08100BF0027C4F24727002022
:100CE0003866FFF7F3FC022D05460BD13068800112
:100CF00028D5FFF7EBFC401B64284FF00300F5D923
:100D00004AE700BF306880017FF545AFFFF7DEFCA2
:100D1000401B64284FF00300F4D93DE70020C4F2E3
:100D2000472000210160FFF7D1FC054630688007AD
:100D30007FF5FEAEFFF7CAFC401B02284FF0030010
:100D4000F4D929E7706848F20001CFF2BC0104F140
:100D50001C0500EA010C2ECDE46A41EA0C01ED030A
:100D60004FF6FF70114325EA000041EA8311A0F518
:100D7000803041EA04610843706001203866FFF763
:100D8000A5FC0446306880013FF505AFFFF79EFCE7
:100D9000001B64284FF00300F4D9FDE6411E00203B
:100DA000B0EB116F1CBF012070474EF21002CEF263
:100DB000000251604EF62351CEF20001F0230B7079
:100DC000072190601160704781B090F84230202B6D
:100DD00008D100294FF0010318BF002A06D1184698
:100DE00001B070470223184601B070470123036326
:100DF00000234363816222218285C285436480F897
:100E00004210026901681AB1CA6842F48072CA606D
:100E10004A6942F001024A61CA6842F02002CA608F
:100E2000026B012A30D1002200920A6800924968C0
:100E300000910099016851E8031F026841F0100118
:100E400042E80313DBB1016851E8031F026841F077
:100E5000100142E8031393B1016851E8031F0268CF
:100E600041F0100142E803134BB1016851E8031F40
:100E7000026841F0100142E80313002BDAD100238D
:100E8000184601B0704700BF0123184601B07047F3
:100E9000B0B540F23431C2F20001006809688842FE
:100EA00018BFB0BD40F23410C2F200000178012931
:100EB0004BD1407801380F281AD8DFE800F0090D2F
:100EC0001115191D1919191919191919192100BF05
:100ED00000F0CAFE39E000BF01F07AF935E000BF4A
:100EE00000F0E6FF31E000BF01F0AAF82DE000BFFE
:100EF000012000F095FE28E001F062FB25E000BF34
:100F000040F20044C4F2020401F086FA40F2D00537
:100F1000C2F200052888012802D030B9002200E082
:100F2000012220464021FFF7CBFB688840B1012811
:100F30000BD1204680210122FFF7C2FB05E000BF54
:100F4000204680210022FFF7BBFB40F2343040F204
:100F50003411C2F20000C2F200014FF48072BDE809
:100F6000B040FFF731BF000070470000B0B582B05D
:100F7000044600680168C368426901F02F05202D0E
:100F800003F0200506D12DB1204602B0BDE8B040E7
:100F900000F060BC5FEA017C1EBF02F0010E03F4AA
:100FA000907212EB0E0253D1226B012A05D111F07F
:100FB000100218BF13F0100236D10A0622D513F022
:100FC00080021FD094F8411021293FD1A168B1F5CA
:100FD000805F03D12169002900F07282216A4A1CD6
:100FE000226209784160E18C01390A04E1842DD143
:100FF000C16821F08001C160C16841F04001C16059
:1010000002B0B0BD490621D513F040011ED0C16821
:1010100021F04001C1602021204684F8411002B037
:10102000BDE8B04000F000BC0021019101680191D1
:101030004168019101994069400613D4A08DE18D6A
:10104000E28D002A18BF884240F0BC8102B0B0BDDA
:10105000CA0718BF13F4807240F0B8804A0700F145
:10106000BB80C0E0E06B016849688AB2002AEDD01D
:10107000A38D9A42EAD2E185C069B0F5807F00F085
:101080009C80206850E8030F216820F4807041E8BC
:101090000302DAB1206850E8030F216820F4807061
:1010A00041E8030292B1206850E8030F216820F460
:1010B000807041E803024AB1206850E8030F2168BC
:1010C00020F4807041E80302002ADAD1206850E859
:1010D000050F216820F0010041E80502DAB120681F
:1010E00050E8050F216820F0010041E8050292B1A7
:1010F000206850E8050F216820F0010041E8050252
:101100004AB1206850E8050F216820F0010041E84D
:101110000502002ADAD1206850E8050F216820F086
:10112000400041E80502DAB1206850E8050F216867
:1011300020F0400041E8050292B1206850E8050F18
:10114000216820F0400041E805024AB1206850E8DB
:10115000050F216820F0400041E80502002ADAD19D
:10116000202084F8420000202063206850E8030F0C
:10117000216820F0100041E80302DAB1206850E84D
:10118000030F216820F0100041E8030292B12068AB
:1011900050E8030F216820F0100041E803024AB133
:1011A000206850E8030F216820F0100041E8030296
:1011B000002ADAD1E06BFFF755F902206063A08DB9
:1011C000E18D401A81B2204675E100BF626C42F0A9
:1011D000010262644A0706D5BEF1000F03D0626CBB
:1011E00042F0020262648A0706D5BEF1000F03D006
:1011F000626C42F004026264BCF1000F09D545EA5A
:101200000E02B2FA82F2520903D1626C42F0080275
:101210006264626C002A3FF419AF11F0200118BF1C
:10122000002D03D0204600F015FB20684069616C5A
:1012300000F0400001F00801401800F0B58000BF48
:10124000206850E8030F216820F4907041E8030201
:10125000BAB3206850E8030F216820F4907041E889
:10126000030272B3206850E8030F216820F49070E5
:1012700041E803022AB3206850E8030F216820F4F4
:10128000907041E80302002ADAD11AE0206850E8A1
:10129000050F216820F0010041E80502DAB120685D
:1012A00050E8050F216820F0010041E8050292B1E5
:1012B000206850E8050F216820F0010041E8050290
:1012C0004AB1206850E8050F216820F0010041E88C
:1012D0000502002ADAD1206B012824D1206850E8C9
:1012E000030F216820F0100041E80302DAB1206802
:1012F00050E8030F216820F0100041E8030292B18A
:10130000206850E8030F216820F0100041E8030234
:101310004AB1206850E8030F216820F0100041E82E
:101320000302002ADAD1202084F842000020206342
:101330002068406940063FD5206850E8050F2168C5
:1013400020F0400041E80502DAB1206850E8050FBE
:10135000216820F0400041E8050292B1206850E881
:10136000050F216820F0400041E805024AB12068DD
:1013700050E8050F216820F0400041E80502002AEE
:10138000DAD1E06BC0B141F64901C0F60001016558
:10139000FFF7B0F800283FF459AEE06B016D02B0E2
:1013A000BDE8B040084700BF2046FFF7DDFD002044
:1013B000606402B0B0BD00BF204602B0BDE8B040DE
:1013C000FFF7D2BD401A216851E8031F226821F4BB
:1013D000907142E80313DBB1216851E8031F2268D2
:1013E00021F4907142E8031393B1216851E8031F7F
:1013F000226821F4907142E803134BB1216851E84F
:10140000031F226821F4907142E80313002BDAD104
:10141000216851E8051F226821F0010142E8051307
:10142000DBB1216851E8051F226821F0010142E883
:10143000051393B1216851E8051F226821F00101CD
:1014400042E805134BB1216851E8051F226821F0DD
:10145000010142E80513002BDAD1202184F8421063
:1014600000212163216851E8031F226821F0100147
:1014700042E80313DBB1216851E8031F226821F021
:10148000100142E8031393B1216851E8031F226859
:1014900021F0100142E803134BB1216851E8031F0A
:1014A000226821F0100142E80313002BDAD1022256
:1014B00081B22046626302B0BDE8B040FFF7E8BCED
:1014C000216A31F8022B6FF35F22426021628AE5C4
:1014D000002804BF0120704710B5044690F8410071
:1014E00028B9002084F84000204600F021F824208C
:1014F00084F841002068C16821F40051C160204691
:1015000000F028FA2068016921F4904101614169E5
:1015100021F02A014161C16841F40051C1600020FD
:101520002021606484F8411084F84210606310BD8B
:1015300080B586B0016844F20040C4F200008142E8
:1015400002D006B080BD00BF002143F630020191F9
:10155000C4F20202136900F5DE3043F40033136174
:10156000136903F400330193019B0191136843F065
:1015700001031360126802F001020192019A0C2229
:1015800001920222CDE90221032104910721059154
:1015900001A9FEF7C1FF262000210022FFF71AF95A
:1015A0002620FFF703F906B080BD00007047000059
:1015B0002DE9F04381B0044690F84100202840F026
:1015C000B180884600294FF0010000F0D680164611
:1015D000002A00F0D2800020606421201D4684F89B
:1015E0004100FFF773F8A684E684A1680646B1F5CA
:1015F000805F03D12069002800F0988047464FF0B3
:101600000008E18C2068002900F0968005F10109AE
:101610000BE000BF47B317F8011B4160E18C0139B3
:10162000E184E18C002900F0878001680906F1D48B
:10163000B9F1000F0AD0EDB1FFF748F8801BA842BE
:1016400018D8206801680906F6D5E3E7016809069D
:10165000E0D4016809065CBF01685FEA0161D9D482
:1016600001680906F2D5D5E738F8021B00276FF3A9
:101670005F21D2E7206850E8030F216820F4D07082
:1016800041E80302BAB3206850E8030F216820F450
:10169000D07041E8030272B3206850E8030F21685C
:1016A00020F4D07041E803022AB3206850E8030F09
:1016B000216820F4D07041E80302002ADAD11AE050
:1016C000206850E8050F216820F0010041E805027C
:1016D000DAB1206850E8050F216820F0010041E8E8
:1016E000050292B1206850E8050F216820F0010042
:1016F00041E805024AB1206850E8050F216820F052
:10170000010041E80502002ADAD1202084F84100D6
:1017100084F84200002084F84000032001B0BDE8B6
:10172000F08300BF022001B0BDE8F0830027E18C08
:10173000206800297FF46AAF0168490619D4FDB119
:10174000691C0DD10168490613D4016849065CBFC4
:1017500001685FEA41610CD401684906F2D508E0EE
:10176000FEF7B4FF801BA8420AD820680068400634
:10177000F6D5202084F84100002001B0BDE8F083B8
:10178000206850E8030F216820F4D07041E803027C
:10179000002A3ED0206850E8030F216820F4D07062
:1017A00041E80302AAB3206850E8030F216820F43F
:1017B000D07041E8030262B3206850E8030F21684B
:1017C00020F4D07041E80302002AD9D121E000BF03
:1017D000206850E8050F216820F0010041E805026B
:1017E000002A3FF492AF206850E8050F216820F0EE
:1017F000010041E80502002A3FF487AF206850E865
:10180000050F216820F0010041E80502002A3FF49D
:101810007CAF206850E8050F216820F0010041E806
:101820000502002AD4D170E770470000FEE70000EF
:10183000FEE70000FEE70000704700007047000070
:10184000FEF74ABF70470000806B0021C185C1844C
:10185000FFF78ABB81B090F84210222921D183681A
:101860000246B3F5805F09D152F8281F52F8183CA0
:10187000002B63D003685B680AE000BF52F8281FA2
:1018800013B90369002BF5D003685B6803F07F038D
:101890000B70116801311160C18D01390A04C185D5
:1018A00002D001B0704700BF0168CA6822F0200270
:1018B000CA60CA6822F48072CA604A6922F00102D2
:1018C0004A61202180F8421000214163026B012A05
:1018D0003CD10163016851E8031F026821F0100147
:1018E00042E80313DBB1016851E8031F026821F0ED
:1018F000100142E8031393B1016851E8031F026825
:1019000021F0100142E803134BB1016851E8031FB5
:10191000026821F0100142E80313002BDAD10168BC
:101920000A68D20606D5002200920A680092496829
:1019300000910099818D01B0FFF7AABA0268526840
:101940006FF35F2221F8022B8162A5E701B0FFF758
:101950002DBE000010B504460068D4E902C2236918
:10196000016921F4405111430161626943EA0C01AC
:10197000E3691143C268194349F20C639A43114366
:10198000C1604169A26921F4407141F200431143F1
:1019900040F48062C4F201039A42416102D1FFF730
:1019A00057F801E0FFF740F8E26961681923B2F5E2
:1019B000004F03FB00F023D14900B0FBF1F048F2E7
:1019C0001F51C5F2EB11A0FB01235A094FF69C737E
:1019D000C0F6FF7303F1805302FB0300322303EBD5
:1019E000C000A0FB01014FF4F87000EA111000EBF9
:1019F0000210C1F3421108442168886010BD00BF85
:101A00008900B0FBF1F048F21F51C5F2EB11A0FBC9
:101A100001235A094FF69C73C0F6FF7302FB0300C3
:101A2000322303EB0010A0FB0101F02000EA51106B
:101A300000EB0210C1F3431108442168886010BD17
:101A400040F23430C2F20000FFF790BAFEE7000027
:101A5000F0B589B14A1E92B242F2FB6342F2FB7EBC
:101A600001F0030C032AC0F60003C0F6000E0BD2EF
:101A7000FF22FF2131E000BFFF21FF22D0B240EA68
:101A8000012080B2F0BD00BF21F003040025FF2239
:101A9000FF2100BF10F8046BD2B272409E5C10F8B8
:101AA000037CC9B2714079401EF802205E5C10F8D8
:101AB000027C72407A401EF801109E5C10F8017C96
:101AC000714079401EF802205E5C04351EF801105A
:101AD000AFB2A74282EA0602DCD1BCF1000FCDD042
:101AE0000478D2B254401A5DBCF1010F82EA0102BF
:101AF0001EF80410C2D04478D2B254401A5DBCF132
:101B0000020F82EA01021EF80410B7D08078D2B228
:101B100050401A5C4A401EF80010D0B240EA012042
:101B200080B2F0BD92B0FEF7E5FD06AC201D2C2181
:101B3000FEF730FC022006900120099010200A9048
:101B4000002520460C95FEF797FF28B1EFF3108093
:101B500072B600BFFEE700BF0F20CDE9010501A866
:101B60000021CDE903550595FEF770FE20B1EFF396
:101B7000108072B6FEE700BF002543F630000A95DC
:101B80000195C4F20200016840F2004441F00101F5
:101B900001600168C4F2020401F0010101910199A0
:101BA00001950168002241F0020101600068C02136
:101BB00000F00200019001982046C026FEF780FD4B
:101BC0000120CDE9070506A9204606960995FEF7EE
:101BD000A3FC40F23430A4F5E031C2F200000C2343
:101BE0004FF4165280E82600C0E90355C0E90535D8
:101BF000C561FFF76DFC28B1EFF3108072B600BF2E
:101C0000FEE700BF40F2343040F23411C2F200006F
:101C1000C2F200014FF48072FFF7D6F8FEE7000031
:101C200010B540F23411C2F200010A78497840F24E
:101C30003424C2F2000441F080016170A07020469B
:101C400003212270FFF704FF844640F23430C2F2D1
:101C50000000214605224FF47A73A4F803C0BDE8C2
:101C60001040FFF7A5BC00002DE9F04381B040F221
:101C70003415C2F2000528796F7947EA0026A6F2EA
:101C8000D17010F5FA6F15D240F2342428786978B3
:101C9000C2F20004207041F0800060700320A07048
:101CA00020460321FFF7D4FEA4F8030000240520FA
:101CB000ECE000BFA87895F803904FF6F87149EA78
:101CC000002806EB08000138084040F23424C2F234
:101CD0000004C82810D328786978207041F080006B
:101CE00060700220A07020460321FFF7B1FEA4F827
:101CF000030000240520C9E0E01CFD21FEF728FBBD
:101D00006978012017F0070E2070617018BF4FF03E
:101D1000010E0EEBD600A0704FEAD802701E42F200
:101D2000E26809F0070507F0030C0328C0F6000875
:101D300002D2032100265AE0A6EB0C000321002664
:101D400018F80270ABB227FA03F303F00103675CE3
:101D5000B3403B4301356354731CAFB2062EC4BF7E
:101D600001310023072F84BF0132002518F80260DB
:101D7000AFB2FE4006F00106675C9E403E4301356F
:101D800066545E1CAFB2062BC4BF01310026072F7C
:101D900084BF0132002518F80230AFB2FB4003F0D7
:101DA0000103675CB3403B4301356354731CAFB21E
:101DB000062EC4BF01310023072F84BF0132002546
:101DC00018F80260AFB2FE4006F00106675C9E4064
:101DD0003E43013566545E1CAFB2062BC4BF0131D1
:101DE0000026072F84BF013200250438A8D1BCF19A
:101DF000000F42D018F80200AFB2F84000F0010026
:101E0000675CB0403843062E6054C8BF0131BCF156
:101E1000010F32D00135A8B2072884BF0025013256
:101E2000701C062E18F80260AFB226FA07F6C8BF7B
:101E3000002006F00106675C86403E430628665493
:101E4000C8BF0131BCF1020F17D06F1CBEB2072E04
:101E500084BF00270132461C062818F80200BAB2D7
:101E600020FA02F0C8BF002600F00100625CB0401A
:101E700010436054062EC8BF013101EB0E05A9B214
:101E80002046FFF7E5FD6053A81C012482B240F212
:101E9000343040F23421C2F20000C2F200014FF4AB
:101EA0007A73FFF785FB204601B0BDE8F0830000A0
:101EB0002DE9F04140F23411C2F2000108794A796B
:101EC00042EA0023A3F17E0010F17E0F14D840F205
:101ED000342408784978C2F20004207041F0800070
:101EE00060700320A07020460321FFF7B1FDA4F825
:101EF00003000024052092E048884FF6CD7500BA13
:101F0000000CC618333EB6B240F23424C2F20004CC
:101F1000AE4211D808784978207041F08000607096
:101F20000220A07020460321FFF792FDA4F80300D1
:101F30000024052073E000BF49780126617051003C
:101F4000A170591E032940F2080102F00308C2F2F1
:101F50000001267004D20323B8F1000F2AD154E007
:101F6000A3EB0803012500BF86B231F81660471CB9
:101F700036BA6219360CBFB231F817705680861C1B
:101F8000B6B23FBA31F816603F0C978037BAC61C1C
:101F9000B6B231F816603F0CD78037BA3F0C043028
:101FA000043B05F108051781DED1AE1C3346B8F1BC
:101FB000000F2AD086B231F816509E1C2DBA2D0C77
:101FC000B8F1010FE55201D11D461EE0451CADB22E
:101FD00031F8155003EB040E4FEA152C04F806C037
:101FE00003F1040CB8F1020F8EF8035002D135460C
:101FF00066460AE0023080B231F810009E1D010AE8
:10200000654604F80C108EF80500B1B22046FFF7C3
:102010001FFDA055000A2919C870B01C012482B206
:1020200040F2343040F23421C2F20000C2F200012A
:102030004FF47A73FFF7BCFA2046BDE8F081000048
:102040002DE9F04140F23411C2F2000108794A79D9
:1020500042EA0023A3F17E0010F17E0F14D840F273
:10206000342408784978C2F20004207041F08000DE
:1020700060700320A07020460321FFF7E9FCA4F85C
:1020800003000024052092E048884FF6CD7500BA81
:10209000000CC618333EB6B240F23424C2F200043B
:1020A000AE4211D808784978207041F08000607005
:1020B0000220A07020460321FFF7CAFCA4F8030009
:1020C0000024052073E000BF4978012661705100AB
:1020D000A170591E032942F27E6102F00308C0F686
:1020E0000001267004D20323B8F1000F2AD154E076
:1020F000A3EB0803012500BF86B231F8166067190B
:10210000320ABA70421C92B231F81220FE70160ADE
:102110003E71861CB6B231F816607A71320ABA7115
:10212000C21C92B231F81220FE71160A0430043B30
:1021300005F108053E727A72DED1AE1C3346B8F165
:10214000000F2AD086B231F816509E1C2DBA2D0CE5
:10215000B8F1010FE55201D11D461EE0451CADB29C
:1021600031F8155003EB040E4FEA152C04F806C0A5
:1021700003F1040CB8F1020F8EF8035002D135467A
:1021800066460AE0023080B231F810009E1D010A56
:10219000654604F80C108EF80500B1B22046FFF732
:1021A00057FCA055000A2919C870B01C012482B23E
:1021B00040F2343040F23421C2F20000C2F2000199
:1021C0004FF47A73FFF7F4F92046BDE8F081000080
:1021D0002DE9F04381B040F23415C2F200052879B0
:1021E0006F7947EA0026A6F2D17010F5FA6F15D282
:1021F00040F2342428786978C2F20004207041F05B
:10220000800060700320A07020460321FFF720FCAF
:10221000A4F8030000240520ECE000BFA87895F89E
:1022200003904FF6F87149EA002806EB08000138E0
:10223000084040F23424C2F20004C82810D32878A1
:102240006978207041F0800060700220A070204604
:102250000321FFF7FDFBA4F8030000240520C9E0DB
:10226000E01CFD21FEF774F86978012017F0070ED5
:102270002070617018BF4FF0010E0EEBD600A070F9
:102280004FEAD802701E42F2E26809F0070507F033
:10229000030C0328C0F6000802D2032100265AE0EE
:1022A000A6EB0C000321002618F80270ABB227FA47
:1022B00003F303F00103675CB3403B430135635410
:1022C000731CAFB2062EC4BF01310023072F84BF99
:1022D0000132002518F80260AFB2FE4006F0010698
:1022E000675C9E403E43013566545E1CAFB2062BD0
:1022F000C4BF01310026072F84BF0132002518F822
:102300000230AFB2FB4003F00103675CB3403B43D4
:1023100001356354731CAFB2062EC4BF01310023D4
:10232000072F84BF0132002518F80260AFB2FE40CB
:1023300006F00106675C9E403E43013566545E1C14
:10234000AFB2062BC4BF01310026072F84BF013274
:1023500000250438A8D1BCF1000F42D018F80200C3
:10236000AFB2F84000F00100675CB0403843062E81
:102370006054C8BF0131BCF1010F32D00135A8B2A1
:10238000072884BF00250132701C062E18F8026051
:10239000AFB226FA07F6C8BF002006F00106675C58
:1023A00086403E4306286654C8BF0131BCF1020F87
:1023B00017D06F1CBEB2072E84BF00270132461C07
:1023C000062818F80200BAB220FA02F0C8BF0026A8
:1023D00000F00100625CB04010436054062EC8BF9C
:1023E000013101EB0E05A9B22046FFF731FB605326
:1023F000A81C012482B240F2343040F23421C2F2EF
:102400000000C2F200014FF47A73FFF7D1F82046C2
:1024100001B0BDE8F08300002DE9F04F81B040F23B
:102420003410C2F2000090F804A090F805C04CEA05
:102430000A23A3F17C0717F17C0F11D840F2342254
:1024400001784078C2F20002117040F08000032150
:1024500050709170171DD41C4FF00008052597E0AF
:1024600090F802E090F803B04FF6CE744BEA0E25D8
:10247000EF18333FBFB2A74212D20278407840F241
:102480003421C2F2000140F08000487002200A703E
:1024900088700F1DCC1C4FF000080525032177E044
:1024A0005C1E032C40F2D0040CF00302C2F20004C4
:1024B00006D24FF007084FF0080982BB52E000BF78
:1024C0009B1A0027009200BFC619B6F80710AAB2DF
:1024D00009BA090C24F81210B6F809106A1C09BAD6
:1024E000090C92B224F81210B6F80B10AA1C09BA03
:1024F000090C92B224F81210B6F80D10EA1C09BAB1
:10250000090C92B20435043B07F1080724F81210B5
:10251000DAD1009A07F1080907F1070812B310F899
:10252000087010F80930012A43EA0723AFB224F8F3
:10253000173017D08144804498F8021099F802703F
:102540006B1C47EA01279BB2022A24F8137009D0BA
:1025500098F8043099F80470023547EA0323AFB2C3
:1025600024F8173040F234234078C2F200034FF0D1
:10257000010883F80080587083F802E083F803B004
:1025800083F804A083F805C0DF1D9C1D08250621E3
:1025900040F23426C2F200063046FFF759FA2070A6
:1025A000000A387040F23430C2F2000031462A4648
:1025B0004FF47A73FEF7FCFF404601B0BDE8F08FA0
:1025C0002DE9F04140F23412C2F200029078D17845
:1025D00041EA0023322B13D340F234201178527891
:1025E000C2F20000017042F080014170022181704E
:1025F00000F10408C71C0024052503211BE000BFCF
:102600001779567940F2080446EA0725C2F2000419
:1026100024F8135040F234235278C2F2000301240C
:10262000D9701F7103F107089F1D082506211C7032
:102630005A7098705E7140F23426C2F2000630463D
:10264000FFF706FA3870000A88F8000040F23430CC
:10265000C2F2000031462A464FF47A73FEF7A8FF13
:102660002046BDE8F08100000000000000000102EB
:10267000030406070809000000000102030400002B
:102680005704AE08050D5C11B3150A1A611EB82275
:102690000F273930483CAF3CFA27A44D0B3535287D
:1026A000734D9034E73861534957F75F4E64A5681E
:1026B0006860AA4FC8723969066C0D7AE07A07879C
:1026C0005E8BB58F0294E4788E881B8CFC8C6EB286
:1026D000C5B612BB13A174A52FAA949EB2C17DBE2C
:1026E00045A0499CAA55CCA366AF60BCCC6C53FFF7
:1026F00000553C0FF08F5499F80D2A00C18140011C
:10270000C0804101C0804100C1814001C0804100C2
:10271000C1814000C1814001C0804101C0804100B1
:10272000C1814000C1814001C0804100C1814001A0
:10273000C0804101C0804100C1814001C080410092
:10274000C1814000C1814001C0804100C181400180
:10275000C0804101C0804100C1814000C181400171
:10276000C0804101C0804100C1814001C080410062
:10277000C1814000C1814001C0804101C080410051
:10278000C1814000C1814001C0804100C181400140
:10279000C0804101C0804100C1814000C181400131
:1027A000C0804101C0804100C1814001C080410022
:1027B000C1814000C1814001C0804100C181400110
:1027C000C0804101C0804100C1814001C080410002
:1027D000C1814000C1814001C0804101C0804100F1
:1027E000C1814000C1814001C0804100C1814001E0
:1027F000C0804101C0804100C1814000C0C101C30F
:102800000302C2C60607C705C5C404CC0C0DCD0F14
:10281000CFCE0E0ACACB0BC90908C8D81819D91BC4
:10282000DBDA1A1EDEDF1FDD1D1CDC14D4D515D744
:102830001716D6D21213D311D1D010F03031F13394
:10284000F3F23236F6F737F53534F43CFCFD3DFF54
:102850003F3EFEFA3A3BFB39F9F83828E8E929EB24
:102860002B2AEAEE2E2FEF2DEDEC2CE42425E52784
:10287000E7E62622E2E323E12120E0A06061A163F4
:10288000A3A26266A6A767A56564A46CACAD6DAF94
:102890006F6EAEAA6A6BAB69A9A86878B8B979BB44
:1028A0007B7ABABE7E7FBF7DBDBC7CB47475B577C4
:1028B000B7B67672B2B373B17170B0509091519354
:1028C00053529296565797559594549C5C5D9D5FD4
:1028D0009F9E5E5A9A9B5B99595898884849894BA4
:1028E0008B8A4A4E8E8F4F8D4D4C8C448485458704
:1028F0004746868242438341818040002029000868
:102900000000002070000000C001000890290008AD
:102910007000002010090000DC0100080000000029
:10292000010000001000000000005704AE08050D73
:102930005C11B3150A1A611EB8220F273930483CC2
:10294000AF3CFA27A44D0B353528734D9034E7384A
:1029500061534957F75F4E64A5686860AA4FC87213
:102960003969066C0D7AE07A07875E8BB58F029421
:10297000E4788E881B8CFC8C6EB2C5B612BB13A19A
:1029800074A52FAA949EB2C17DBE45A00024F40078
:040000050800018569
:00000001FF
